{
  "contractName": "SolvadorWallet",
  "abi": [
    {
      "inputs": [],
      "payable": false,
      "stateMutability": "nonpayable",
      "type": "constructor"
    },
    {
      "payable": true,
      "stateMutability": "payable",
      "type": "fallback"
    },
    {
      "anonymous": false,
      "inputs": [],
      "name": "SomeOneWantsToRecover",
      "type": "event"
    },
    {
      "constant": false,
      "inputs": [
        {
          "name": "whoom",
          "type": "address"
        },
        {
          "name": "amount",
          "type": "uint256"
        }
      ],
      "name": "transfer",
      "outputs": [
        {
          "name": "",
          "type": "bool"
        }
      ],
      "payable": false,
      "stateMutability": "nonpayable",
      "type": "function"
    },
    {
      "constant": false,
      "inputs": [
        {
          "name": "_sign",
          "type": "bytes"
        }
      ],
      "name": "set_notary",
      "outputs": [
        {
          "name": "",
          "type": "bool"
        }
      ],
      "payable": false,
      "stateMutability": "nonpayable",
      "type": "function"
    },
    {
      "constant": false,
      "inputs": [
        {
          "name": "_sign",
          "type": "bytes"
        },
        {
          "name": "_notary",
          "type": "address"
        }
      ],
      "name": "restore",
      "outputs": [
        {
          "name": "",
          "type": "bool"
        }
      ],
      "payable": false,
      "stateMutability": "nonpayable",
      "type": "function"
    },
    {
      "constant": false,
      "inputs": [],
      "name": "finita_la_comedia",
      "outputs": [],
      "payable": false,
      "stateMutability": "nonpayable",
      "type": "function"
    }
  ],
  "bytecode": "0x608060405234801561001057600080fd5b50336000806101000a81548173ffffffffffffffffffffffffffffffffffffffff021916908373ffffffffffffffffffffffffffffffffffffffff16021790555060006002819055506104ff806100686000396000f300608060405260043610610062576000357c0100000000000000000000000000000000000000000000000000000000900463ffffffff16806328b97b5414610064578063470252b1146100e5578063a9059cbb14610186578063e971b291146101eb575b005b34801561007057600080fd5b506100cb600480360381019080803590602001908201803590602001908080601f0160208091040260200160405190810160405280939291908181526020018383808284378201915050505050509192919290505050610202565b604051808215151515815260200191505060405180910390f35b3480156100f157600080fd5b5061016c600480360381019080803590602001908201803590602001908080601f0160208091040260200160405190810160405280939291908181526020018383808284378201915050505050509192919290803573ffffffffffffffffffffffffffffffffffffffff1690602001909291905050506102f0565b604051808215151515815260200191505060405180910390f35b34801561019257600080fd5b506101d1600480360381019080803573ffffffffffffffffffffffffffffffffffffffff169060200190929190803590602001909291905050506102f8565b604051808215151515815260200191505060405180910390f35b3480156101f757600080fd5b50610200610397565b005b6000806000809054906101000a900473ffffffffffffffffffffffffffffffffffffffff1673ffffffffffffffffffffffffffffffffffffffff163373ffffffffffffffffffffffffffffffffffffffff1614151561026457600091506102ea565b600090505b60038112156102e55760006001600083815260200190815260200160002080546001816001161561010002031660029004905011156102a7576102d8565b826001600083815260200190815260200160002090805190602001906102ce92919061042e565b50600191506102ea565b8080600101915050610269565b600091505b50919050565b600092915050565b60008060009054906101000a900473ffffffffffffffffffffffffffffffffffffffff1673ffffffffffffffffffffffffffffffffffffffff163373ffffffffffffffffffffffffffffffffffffffff161415156103595760009050610391565b8273ffffffffffffffffffffffffffffffffffffffff166108fc839081150290604051600060405180830381858888f1935050505090505b92915050565b6000809054906101000a900473ffffffffffffffffffffffffffffffffffffffff1673ffffffffffffffffffffffffffffffffffffffff163373ffffffffffffffffffffffffffffffffffffffff161415156103f25761042c565b6000809054906101000a900473ffffffffffffffffffffffffffffffffffffffff1673ffffffffffffffffffffffffffffffffffffffff16ff5b565b828054600181600116156101000203166002900490600052602060002090601f016020900481019282601f1061046f57805160ff191683800117855561049d565b8280016001018555821561049d579182015b8281111561049c578251825591602001919060010190610481565b5b5090506104aa91906104ae565b5090565b6104d091905b808211156104cc5760008160009055506001016104b4565b5090565b905600a165627a7a7230582083fba77d01a16420c1eeb9859b66a930ba99e98d1f8a1124dea75f6482bb5abc0029",
  "source": "pragma solidity ^0.4.25;\ncontract SolvadorWallet {\n\n    event SomeOneWantsToRecover();\n\n    address owner;\n    mapping(int => bytes) signs;\n    int restored;\n\n    constructor() public {\n        owner = msg.sender;\n        restored = 0;\n    }\n    \n    function() external payable { }\n\n    function transfer(address whoom, uint amount) public returns (bool) {\n        if (msg.sender != owner) return false;\n        return whoom.send(amount);\n    }    \n    \n    function set_notary(bytes _sign) public returns (bool) {\n        if (msg.sender != owner) return false;\n        for (int i = 0; i < 3; i++) {\n            if (signs[i].length > 0 ) continue;\n            signs[i] = _sign;\n            return true;\n        }\n        return false;\n    }\n\n    function signcheck(bytes sign) private returns(bool) {\n        bytes32 r;\n        bytes32 s;\n        uint8 v;\n        \n        if (sign.length != 65) {\n          return false;\n        }\n    }\n\n    function restore(bytes _sign, address _notary) public returns (bool) {\n        \n    }\n    \n    \n    function finita_la_comedia() {\n        if (msg.sender != owner) return;\n        selfdestruct(owner);\n    }\n}\n",
  "sourcePath": "/Users/vany/p/solvador/contract/t/contracts/solvador.sol",
  "compiler": {
    "name": "solc",
    "version": "0.4.25+commit.59dbf8f1.Emscripten.clang"
  },
  "schemaVersion": "3.0.8",
  "updatedAt": "2019-04-27T18:03:48.836Z",
  "devdoc": {
    "methods": {}
  },
  "userdoc": {
    "methods": {}
  }
}