{
  "contractName": "SolvadorWallet",
  "abi": [
    {
      "inputs": [],
      "payable": false,
      "stateMutability": "nonpayable",
      "type": "constructor"
    },
    {
      "payable": true,
      "stateMutability": "payable",
      "type": "fallback"
    },
    {
      "anonymous": false,
      "inputs": [],
      "name": "SomeOneWantsToRecover",
      "type": "event"
    },
    {
      "constant": false,
      "inputs": [
        {
          "name": "whoom",
          "type": "address"
        },
        {
          "name": "amount",
          "type": "uint256"
        }
      ],
      "name": "transfer",
      "outputs": [
        {
          "name": "",
          "type": "bool"
        }
      ],
      "payable": false,
      "stateMutability": "nonpayable",
      "type": "function"
    },
    {
      "constant": false,
      "inputs": [
        {
          "name": "_data",
          "type": "bytes"
        }
      ],
      "name": "set_notary",
      "outputs": [
        {
          "name": "",
          "type": "bool"
        }
      ],
      "payable": false,
      "stateMutability": "nonpayable",
      "type": "function"
    }
  ],
  "bytecode": "0x608060405234801561001057600080fd5b50336000806101000a81548173ffffffffffffffffffffffffffffffffffffffff021916908373ffffffffffffffffffffffffffffffffffffffff160217905550610333806100606000396000f30060806040526004361061004c576000357c0100000000000000000000000000000000000000000000000000000000900463ffffffff16806328b97b541461004e578063a9059cbb146100cf575b005b34801561005a57600080fd5b506100b5600480360381019080803590602001908201803590602001908080601f0160208091040260200160405190810160405280939291908181526020018383808284378201915050505050509192919290505050610134565b604051808215151515815260200191505060405180910390f35b3480156100db57600080fd5b5061011a600480360381019080803573ffffffffffffffffffffffffffffffffffffffff169060200190929190803590602001909291905050506101c3565b604051808215151515815260200191505060405180910390f35b600080600090505b60038112156101b857600060016000838152602001908152602001600020805460018160011615610100020316600290049050111561017a576101ab565b826001600083815260200190815260200160002090805190602001906101a1929190610262565b50600191506101bd565b808060010191505061013c565b600091505b50919050565b60008060009054906101000a900473ffffffffffffffffffffffffffffffffffffffff1673ffffffffffffffffffffffffffffffffffffffff163373ffffffffffffffffffffffffffffffffffffffff16141515610224576000905061025c565b8273ffffffffffffffffffffffffffffffffffffffff166108fc839081150290604051600060405180830381858888f1935050505090505b92915050565b828054600181600116156101000203166002900490600052602060002090601f016020900481019282601f106102a357805160ff19168380011785556102d1565b828001600101855582156102d1579182015b828111156102d05782518255916020019190600101906102b5565b5b5090506102de91906102e2565b5090565b61030491905b808211156103005760008160009055506001016102e8565b5090565b905600a165627a7a72305820e0293653ba5171883081f76f80d2032373742db56ac74e9f14101e22e4d04bb90029",
  "source": "pragma solidity ^0.4.25;\ncontract SolvadorWallet {\n\n    event SomeOneWantsToRecover();\n\n    address owner;\n    mapping(int => bytes) notary;\n\n    constructor() public {\n        owner = msg.sender;\n    }\n    \n    function() external payable { }\n\n    function transfer(address whoom, uint amount) public returns (bool) {\n        if (msg.sender != owner) return false;\n        return whoom.send(amount);\n    }    \n    \n    function set_notary(bytes _data) public returns (bool) {\n        for (int i = 0; i < 3; i++) {\n            if (notary[i].length > 0 ) continue;\n            notary[i] = _data;\n            return true;\n        }\n        return false;\n    }\n\n    function check()\n    internal\n    pure\n    returns (bool)\n  {\n      return true;\n  }    \n}\n\n",
  "sourcePath": "/Users/vany/p/solvador/contract/t/contracts/solvador.sol",
  "compiler": {
    "name": "solc",
    "version": "0.4.25+commit.59dbf8f1.Emscripten.clang"
  },
  "schemaVersion": "3.0.8",
  "updatedAt": "2019-04-27T17:51:38.841Z",
  "devdoc": {
    "methods": {}
  },
  "userdoc": {
    "methods": {}
  }
}