{
  "contractName": "SolvadorWallet",
  "abi": [
    {
      "inputs": [],
      "payable": false,
      "stateMutability": "nonpayable",
      "type": "constructor"
    },
    {
      "payable": true,
      "stateMutability": "payable",
      "type": "fallback"
    },
    {
      "anonymous": false,
      "inputs": [],
      "name": "Recovered",
      "type": "event"
    },
    {
      "constant": false,
      "inputs": [
        {
          "name": "whoom",
          "type": "address"
        },
        {
          "name": "amount",
          "type": "uint256"
        }
      ],
      "name": "transfer",
      "outputs": [
        {
          "name": "",
          "type": "bool"
        }
      ],
      "payable": true,
      "stateMutability": "payable",
      "type": "function"
    },
    {
      "constant": false,
      "inputs": [
        {
          "name": "_hash",
          "type": "bytes32"
        }
      ],
      "name": "set_notary",
      "outputs": [
        {
          "name": "",
          "type": "bool"
        }
      ],
      "payable": false,
      "stateMutability": "nonpayable",
      "type": "function"
    },
    {
      "constant": false,
      "inputs": [
        {
          "name": "_passport",
          "type": "bytes"
        },
        {
          "name": "_notary",
          "type": "address"
        }
      ],
      "name": "restore",
      "outputs": [
        {
          "name": "",
          "type": "bool"
        }
      ],
      "payable": true,
      "stateMutability": "payable",
      "type": "function"
    },
    {
      "constant": false,
      "inputs": [],
      "name": "finita_la_comedia",
      "outputs": [],
      "payable": false,
      "stateMutability": "nonpayable",
      "type": "function"
    }
  ],
  "bytecode": "0x608060405234801561001057600080fd5b50336000806101000a81548173ffffffffffffffffffffffffffffffffffffffff021916908373ffffffffffffffffffffffffffffffffffffffff160217905550600060038190555061071a806100686000396000f300608060405260043610610062576000357c0100000000000000000000000000000000000000000000000000000000900463ffffffff168063470252b114610064578063a9059cbb146100f8578063d99890f614610150578063e971b29114610199575b005b6100de600480360381019080803590602001908201803590602001908080601f0160208091040260200160405190810160405280939291908181526020018383808284378201915050505050509192919290803573ffffffffffffffffffffffffffffffffffffffff1690602001909291905050506101b0565b604051808215151515815260200191505060405180910390f35b610136600480360381019080803573ffffffffffffffffffffffffffffffffffffffff1690602001909291908035906020019092919050505061027c565b604051808215151515815260200191505060405180910390f35b34801561015c57600080fd5b5061017f600480360381019080803560001916906020019092919050505061037f565b604051808215151515815260200191505060405180910390f35b3480156101a557600080fd5b506101ae6104c9565b005b6000806001600060035481526020019081526020016000205490506101d68185856105c7565b15156101e55760009150610275565b6003600081548092919060010191905055506003546002541215610270577f31eefbe8985ba176de1e0ff181fabf51720b3bf809abe4146eb53e9c87ee8acf60405160405180910390a1336000806101000a81548173ffffffffffffffffffffffffffffffffffffffff021916908373ffffffffffffffffffffffffffffffffffffffff1602179055505b600191505b5092915050565b60008060009054906101000a900473ffffffffffffffffffffffffffffffffffffffff1673ffffffffffffffffffffffffffffffffffffffff163373ffffffffffffffffffffffffffffffffffffffff16141515610342576040517f08c379a000000000000000000000000000000000000000000000000000000000815260040180806020018281038252600c8152602001807f556e617574686f7269736564000000000000000000000000000000000000000081525060200191505060405180910390fd5b8273ffffffffffffffffffffffffffffffffffffffff166108fc839081150290604051600060405180830381858888f19350505050905092915050565b6000806000809054906101000a900473ffffffffffffffffffffffffffffffffffffffff1673ffffffffffffffffffffffffffffffffffffffff163373ffffffffffffffffffffffffffffffffffffffff16141515610446576040517f08c379a000000000000000000000000000000000000000000000000000000000815260040180806020018281038252600c8152602001807f556e617574686f7269736564000000000000000000000000000000000000000081525060200191505060405180910390fd5b600090505b60038112156104be5760006001600083815260200190815260200160002050602060ff16111561047a576104b1565b82600160008381526020019081526020016000208160001916905550600260008154809291906001019190505550600191506104c3565b808060010191505061044b565b600091505b50919050565b6000809054906101000a900473ffffffffffffffffffffffffffffffffffffffff1673ffffffffffffffffffffffffffffffffffffffff163373ffffffffffffffffffffffffffffffffffffffff1614151561058d576040517f08c379a000000000000000000000000000000000000000000000000000000000815260040180806020018281038252600c8152602001807f556e617574686f7269736564000000000000000000000000000000000000000081525060200191505060405180910390fd5b6000809054906101000a900473ffffffffffffffffffffffffffffffffffffffff1673ffffffffffffffffffffffffffffffffffffffff16ff5b600080600080604186511415156105e157600093506106e4565b6020860151925060408601519150606086015160001a9050601b8160ff16101561060c57601b810190505b601b8160ff16141580156106245750601c8160ff1614155b1561063257600093506106e4565b8473ffffffffffffffffffffffffffffffffffffffff16600188838686604051600081526020016040526040518085600019166000191681526020018460ff1660ff1681526020018360001916600019168152602001826000191660001916815260200194505050505060206040516020810390808403906000865af11580156106c0573d6000803e3d6000fd5b5050506020604051035173ffffffffffffffffffffffffffffffffffffffff161493505b50505093925050505600a165627a7a72305820a18f85efd03bc1e5403158ebea3007815e5ef7cb267a1a35bfbe8bf6e70d293d0029",
  "source": "pragma solidity ^0.4.25;\ncontract SolvadorWallet {\n\n    modifier onlyOwner {\n         require(msg.sender == owner, \"Unauthorised\");\n        _;\n    }\n    event Recovered();\n\n    address owner;\n    mapping(int => bytes32) signs; // notary signs\n    int notarys;\n    int restored; //amout of checked notary signs\n\n    constructor() public {\n        owner = msg.sender;\n        restored = 0;\n    }\n    \n    function() external payable { }\n\n    function transfer(address whoom, uint amount) onlyOwner public payable returns (bool) {\n        return whoom.send(amount);\n    }    \n    \n    function set_notary(bytes32 _hash) onlyOwner public returns (bool) {\n        for (int i = 0; i < 3; i++) {\n            if (signs[i].length > 0 ) continue;\n            signs[i] = _hash;\n            notarys++;\n            return true;\n        }\n        return false;\n    }\n\n    function signcheck(bytes32 _hash, bytes _signature, address _pubk) private pure returns(bool) {\n        bytes32 r;\n        bytes32 s;\n        uint8 v;\n        \n        if (_signature.length != 65) return false;\n        assembly {\n            r := mload(add(_signature, 0x20))\n            s := mload(add(_signature, 0x40))\n            v := byte(0, mload(add(_signature, 0x60)))\n        }\n        if (v < 27) v += 27;\n        if (v != 27 && v != 28) return false;\n        return ecrecover(_hash, v, r, s) == _pubk;\n    }\n\n    function restore(bytes _passport, address _notary) public payable returns (bool) {\n        bytes32 current = signs[restored];\n        if (! signcheck(current, _passport, _notary)) return false;\n        restored++;\n        if (notarys < restored ) {\n            emit Recovered();\n            owner = msg.sender;\n        }\n        return true;\n    }\n    \n    \n    function finita_la_comedia() onlyOwner public {\n        selfdestruct(owner);\n    }\n}\n",
  "sourcePath": "/Users/vany/p/solvador/contract/t/contracts/solvador.sol",
  "compiler": {
    "name": "solc",
    "version": "0.4.25+commit.59dbf8f1.Emscripten.clang"
  },
  "schemaVersion": "3.0.8",
  "updatedAt": "2019-04-28T11:11:50.812Z",
  "devdoc": {
    "methods": {}
  },
  "userdoc": {
    "methods": {}
  }
}