{
  "contractName": "SolvadorWallet",
  "abi": [
    {
      "inputs": [],
      "payable": false,
      "stateMutability": "nonpayable",
      "type": "constructor"
    },
    {
      "payable": true,
      "stateMutability": "payable",
      "type": "fallback"
    },
    {
      "anonymous": false,
      "inputs": [],
      "name": "Recovered",
      "type": "event"
    },
    {
      "constant": false,
      "inputs": [
        {
          "name": "whoom",
          "type": "address"
        },
        {
          "name": "amount",
          "type": "uint256"
        }
      ],
      "name": "transfer",
      "outputs": [
        {
          "name": "",
          "type": "bool"
        }
      ],
      "payable": true,
      "stateMutability": "payable",
      "type": "function"
    },
    {
      "constant": false,
      "inputs": [
        {
          "name": "_hash",
          "type": "bytes"
        }
      ],
      "name": "set_notary",
      "outputs": [
        {
          "name": "",
          "type": "bool"
        }
      ],
      "payable": false,
      "stateMutability": "nonpayable",
      "type": "function"
    },
    {
      "constant": false,
      "inputs": [
        {
          "name": "_passportHash",
          "type": "bytes32"
        },
        {
          "name": "_notary",
          "type": "address"
        }
      ],
      "name": "restore",
      "outputs": [
        {
          "name": "",
          "type": "bool"
        }
      ],
      "payable": true,
      "stateMutability": "payable",
      "type": "function"
    },
    {
      "constant": false,
      "inputs": [],
      "name": "finita_la_comedia",
      "outputs": [],
      "payable": false,
      "stateMutability": "nonpayable",
      "type": "function"
    }
  ],
  "bytecode": "0x608060405234801561001057600080fd5b50336000806101000a81548173ffffffffffffffffffffffffffffffffffffffff021916908373ffffffffffffffffffffffffffffffffffffffff1602179055506000600381905550610872806100686000396000f300608060405260043610610062576000357c0100000000000000000000000000000000000000000000000000000000900463ffffffff16806328b97b5414610064578063a9059cbb146100e5578063ad579d6f1461013d578063e971b29114610199575b005b34801561007057600080fd5b506100cb600480360381019080803590602001908201803590602001908080601f01602080910402602001604051908101604052809392919081815260200183838082843782019150505050505091929192905050506101b0565b604051808215151515815260200191505060405180910390f35b610123600480360381019080803573ffffffffffffffffffffffffffffffffffffffff16906020019092919080359060200190929190505050610315565b604051808215151515815260200191505060405180910390f35b61017f6004803603810190808035600019169060200190929190803573ffffffffffffffffffffffffffffffffffffffff169060200190929190505050610418565b604051808215151515815260200191505060405180910390f35b3480156101a557600080fd5b506101ae61057c565b005b6000806000809054906101000a900473ffffffffffffffffffffffffffffffffffffffff1673ffffffffffffffffffffffffffffffffffffffff163373ffffffffffffffffffffffffffffffffffffffff16141515610277576040517f08c379a000000000000000000000000000000000000000000000000000000000815260040180806020018281038252600c8152602001807f556e617574686f7269736564000000000000000000000000000000000000000081525060200191505060405180910390fd5b600090505b600381121561030a5760006001600083815260200190815260200160002080546001816001161561010002031660029004905011156102ba576102fd565b826001600083815260200190815260200160002090805190602001906102e19291906107a1565b506002600081548092919060010191905055506001915061030f565b808060010191505061027c565b600091505b50919050565b60008060009054906101000a900473ffffffffffffffffffffffffffffffffffffffff1673ffffffffffffffffffffffffffffffffffffffff163373ffffffffffffffffffffffffffffffffffffffff161415156103db576040517f08c379a000000000000000000000000000000000000000000000000000000000815260040180806020018281038252600c8152602001807f556e617574686f7269736564000000000000000000000000000000000000000081525060200191505060405180910390fd5b8273ffffffffffffffffffffffffffffffffffffffff166108fc839081150290604051600060405180830381858888f19350505050905092915050565b60008060016000600354815260200190815260200160002090506104d684828054600181600116156101000203166002900480601f0160208091040260200160405190810160405280929190818152602001828054600181600116156101000203166002900480156104cb5780601f106104a0576101008083540402835291602001916104cb565b820191906000526020600020905b8154815290600101906020018083116104ae57829003601f168201915b50505050508561067a565b15156104e55760009150610575565b6003600081548092919060010191905055506003546002541215610570577f31eefbe8985ba176de1e0ff181fabf51720b3bf809abe4146eb53e9c87ee8acf60405160405180910390a1336000806101000a81548173ffffffffffffffffffffffffffffffffffffffff021916908373ffffffffffffffffffffffffffffffffffffffff1602179055505b600191505b5092915050565b6000809054906101000a900473ffffffffffffffffffffffffffffffffffffffff1673ffffffffffffffffffffffffffffffffffffffff163373ffffffffffffffffffffffffffffffffffffffff16141515610640576040517f08c379a000000000000000000000000000000000000000000000000000000000815260040180806020018281038252600c8152602001807f556e617574686f7269736564000000000000000000000000000000000000000081525060200191505060405180910390fd5b6000809054906101000a900473ffffffffffffffffffffffffffffffffffffffff1673ffffffffffffffffffffffffffffffffffffffff16ff5b600080600080604186511415156106945760009350610797565b6020860151925060408601519150606086015160001a9050601b8160ff1610156106bf57601b810190505b601b8160ff16141580156106d75750601c8160ff1614155b156106e55760009350610797565b8473ffffffffffffffffffffffffffffffffffffffff16600188838686604051600081526020016040526040518085600019166000191681526020018460ff1660ff1681526020018360001916600019168152602001826000191660001916815260200194505050505060206040516020810390808403906000865af1158015610773573d6000803e3d6000fd5b5050506020604051035173ffffffffffffffffffffffffffffffffffffffff161493505b5050509392505050565b828054600181600116156101000203166002900490600052602060002090601f016020900481019282601f106107e257805160ff1916838001178555610810565b82800160010185558215610810579182015b8281111561080f5782518255916020019190600101906107f4565b5b50905061081d9190610821565b5090565b61084391905b8082111561083f576000816000905550600101610827565b5090565b905600a165627a7a72305820289b99814d3920fefdaa89c1f3d00cfe624fc90f83d12f82a7ea5772db6342d80029",
  "source": "pragma solidity ^0.4.25;\ncontract SolvadorWallet {\n\n    modifier onlyOwner {\n         require(msg.sender == owner, \"Unauthorised\");\n        _;\n    }\n    \n    event Recovered();\n\n    address owner;\n    mapping(int => bytes) signs; // notary signs\n    int notarys;\n    int restored; //amout of checked notary signs\n\n    constructor() public {\n        owner = msg.sender;\n        restored = 0;\n    }\n    \n    function() external payable { }\n\n    function transfer(address whoom, uint amount) onlyOwner public payable returns (bool) {\n        return whoom.send(amount);\n    }    \n    \n    function set_notary(bytes _hash) onlyOwner public returns (bool) {\n        for (int i = 0; i < 3; i++) {\n            if (signs[i].length > 0 ) continue;\n            signs[i] = _hash;\n            notarys++;\n            return true;\n        }\n        return false;\n    }\n\n    function signcheck(bytes32 _passportHash, bytes _signature, address _pubk) private pure returns(bool) {\n        bytes32 r;\n        bytes32 s;\n        uint8 v;\n        \n        if (_signature.length != 65) return false;\n        assembly {\n            r := mload(add(_signature, 0x20))\n            s := mload(add(_signature, 0x40))\n            v := byte(0, mload(add(_signature, 0x60)))\n        }\n        if (v < 27) v += 27;\n        if (v != 27 && v != 28) return false;\n        return ecrecover(_passportHash, v, r, s) == _pubk;\n    }\n\n    function restore(bytes32 _passportHash, address _notary) public payable returns (bool) {\n        bytes storage cur = signs[restored];\n        if (! signcheck(_passportHash, cur, _notary)) return false;\n        restored++;\n        if (notarys < restored ) {\n            emit Recovered();\n            owner = msg.sender;\n        }\n        return true;\n    }\n    \n    \n    function finita_la_comedia() onlyOwner public {\n        selfdestruct(owner);\n    }\n}\n",
  "sourcePath": "/Users/vany/p/solvador/contract/t/contracts/solvador.sol",
  "compiler": {
    "name": "solc",
    "version": "0.4.25+commit.59dbf8f1.Emscripten.clang"
  },
  "schemaVersion": "3.0.8",
  "updatedAt": "2019-04-28T13:01:35.445Z",
  "devdoc": {
    "methods": {}
  },
  "userdoc": {
    "methods": {}
  }
}