{
  "contractName": "SolvadorWallet",
  "abi": [
    {
      "inputs": [],
      "payable": false,
      "stateMutability": "nonpayable",
      "type": "constructor"
    },
    {
      "payable": true,
      "stateMutability": "payable",
      "type": "fallback"
    },
    {
      "anonymous": false,
      "inputs": [],
      "name": "Recovered",
      "type": "event"
    },
    {
      "constant": false,
      "inputs": [
        {
          "name": "whoom",
          "type": "address"
        },
        {
          "name": "amount",
          "type": "uint256"
        }
      ],
      "name": "ValidSignature",
      "outputs": [
        {
          "name": "",
          "type": "bool"
        }
      ],
      "payable": true,
      "stateMutability": "payable",
      "type": "event",
      "anonymous": false
    },
    {
      "constant": false,
      "inputs": [
        {
          "name": "whoom",
          "type": "address"
        },
        {
          "name": "amount",
          "type": "uint256"
        }
      ],
      "name": "transfer",
      "outputs": [
        {
          "name": "",
          "type": "bool"
        }
      ],
      "payable": true,
      "stateMutability": "payable",
      "type": "function"
    },
    {
      "constant": false,
      "inputs": [
        {
          "name": "_hash",
          "type": "bytes"
        },
        {
          "name": "_notary",
          "type": "address"
        }
      ],
      "name": "set_notary",
      "outputs": [
        {
          "name": "",
          "type": "bool"
        }
      ],
      "payable": false,
      "stateMutability": "nonpayable",
      "type": "function"
    },
    {
      "constant": false,
      "inputs": [
        {
          "name": "_passportHash",
          "type": "bytes32"
        },
        {
          "name": "_notary",
          "type": "address"
        }
      ],
      "name": "restore",
      "outputs": [
        {
          "name": "",
          "type": "bool"
        }
      ],
      "payable": true,
      "stateMutability": "payable",
      "type": "function"
    },
    {
      "constant": false,
      "inputs": [],
      "name": "finita_la_comedia",
      "outputs": [],
      "payable": false,
      "stateMutability": "nonpayable",
      "type": "function"
    }
  ],
  "bytecode": "0x608060405234801561001057600080fd5b50336000806101000a81548173ffffffffffffffffffffffffffffffffffffffff021916908373ffffffffffffffffffffffffffffffffffffffff16021790555060006003819055506108a1806100686000396000f300608060405260043610610062576000357c0100000000000000000000000000000000000000000000000000000000900463ffffffff16806328b97b5414610064578063a9059cbb146100e5578063ad579d6f1461013d578063e971b29114610199575b005b34801561007057600080fd5b506100cb600480360381019080803590602001908201803590602001908080601f01602080910402602001604051908101604052809392919081815260200183838082843782019150505050505091929192905050506101b0565b604051808215151515815260200191505060405180910390f35b610123600480360381019080803573ffffffffffffffffffffffffffffffffffffffff16906020019092919080359060200190929190505050610315565b604051808215151515815260200191505060405180910390f35b61017f6004803603810190808035600019169060200190929190803573ffffffffffffffffffffffffffffffffffffffff169060200190929190505050610418565b604051808215151515815260200191505060405180910390f35b3480156101a557600080fd5b506101ae6105a5565b005b6000806000809054906101000a900473ffffffffffffffffffffffffffffffffffffffff1673ffffffffffffffffffffffffffffffffffffffff163373ffffffffffffffffffffffffffffffffffffffff16141515610277576040517f08c379a000000000000000000000000000000000000000000000000000000000815260040180806020018281038252600c8152602001807f556e617574686f7269736564000000000000000000000000000000000000000081525060200191505060405180910390fd5b600090505b600381121561030a5760006001600083815260200190815260200160002080546001816001161561010002031660029004905011156102ba576102fd565b826001600083815260200190815260200160002090805190602001906102e19291906107d0565b506002600081548092919060010191905055506001915061030f565b808060010191505061027c565b600091505b50919050565b60008060009054906101000a900473ffffffffffffffffffffffffffffffffffffffff1673ffffffffffffffffffffffffffffffffffffffff163373ffffffffffffffffffffffffffffffffffffffff161415156103db576040517f08c379a000000000000000000000000000000000000000000000000000000000815260040180806020018281038252600c8152602001807f556e617574686f7269736564000000000000000000000000000000000000000081525060200191505060405180910390fd5b8273ffffffffffffffffffffffffffffffffffffffff166108fc839081150290604051600060405180830381858888f19350505050905092915050565b600080600060016000600354815260200190815260200160002091506104d885838054600181600116156101000203166002900480601f0160208091040260200160405190810160405280929190818152602001828054600181600116156101000203166002900480156104cd5780601f106104a2576101008083540402835291602001916104cd565b820191906000526020600020905b8154815290600101906020018083116104b057829003601f168201915b5050505050866106a3565b9050801561050d577f25ce3926b34ca3e3d1b846ec48ed42c68f4569df865b92ee918fe3bdca736afc60405160405180910390a15b60036000815480929190600101919050555060035460025413151561059957336000806101000a81548173ffffffffffffffffffffffffffffffffffffffff021916908373ffffffffffffffffffffffffffffffffffffffff1602179055507f31eefbe8985ba176de1e0ff181fabf51720b3bf809abe4146eb53e9c87ee8acf60405160405180910390a15b60019250505092915050565b6000809054906101000a900473ffffffffffffffffffffffffffffffffffffffff1673ffffffffffffffffffffffffffffffffffffffff163373ffffffffffffffffffffffffffffffffffffffff16141515610669576040517f08c379a000000000000000000000000000000000000000000000000000000000815260040180806020018281038252600c8152602001807f556e617574686f7269736564000000000000000000000000000000000000000081525060200191505060405180910390fd5b6000809054906101000a900473ffffffffffffffffffffffffffffffffffffffff1673ffffffffffffffffffffffffffffffffffffffff16ff5b6000806000806000604187511415156106bf57600094506107c5565b6020870151935060408701519250606087015160001a9150601b8260ff1610156106ea57601b820191505b601b8260ff16141580156107025750601c8260ff1614155b1561071057600094506107c5565b600188838686604051600081526020016040526040518085600019166000191681526020018460ff1660ff1681526020018360001916600019168152602001826000191660001916815260200194505050505060206040516020810390808403906000865af1158015610787573d6000803e3d6000fd5b5050506020604051035190508573ffffffffffffffffffffffffffffffffffffffff168173ffffffffffffffffffffffffffffffffffffffff161494505b505050509392505050565b828054600181600116156101000203166002900490600052602060002090601f016020900481019282601f1061081157805160ff191683800117855561083f565b8280016001018555821561083f579182015b8281111561083e578251825591602001919060010190610823565b5b50905061084c9190610850565b5090565b61087291905b8082111561086e576000816000905550600101610856565b5090565b905600a165627a7a72305820becf72978e3e80c0a8209e5f37ce1a885b6b766ed1bfa28e41723177d4aa7adf0029",
  "source": "pragma solidity ^0.4.25;\ncontract SolvadorWallet {\n\n    modifier onlyOwner {\n         require(msg.sender == owner, \"Unauthorised\");\n        _;\n    }\n    \n    event Recovered();\n    event ValidSignature();\n    \n\n    address owner;\n    mapping(int => bytes) signs; // notary signs\n    int notarys;\n    int restored; //amout of checked notary signs\n\n    constructor() public {\n        owner = msg.sender;\n        restored = 0;\n    }\n    \n    function() external payable { }\n\n    function transfer(address whoom, uint amount) onlyOwner public payable returns (bool) {\n        return whoom.send(amount);\n    }    \n    \n    function set_notary(bytes _hash) onlyOwner public returns (bool) {\n        for (int i = 0; i < 3; i++) {\n            if (signs[i].length > 0 ) continue;\n            signs[i] = _hash;\n            notarys++;\n            return true;\n        }\n        return false;\n    }\n\n    function signcheck(bytes32 _passportHash, bytes _signature, address _pubk) private pure returns(bool) {\n        bytes32 r;\n        bytes32 s;\n        uint8 v;\n        \n        if (_signature.length != 65) return false;\n        assembly {\n            r := mload(add(_signature, 0x20))\n            s := mload(add(_signature, 0x40))\n            v := byte(0, mload(add(_signature, 0x60)))\n        }\n        if (v < 27) v += 27;\n        if (v != 27 && v != 28) return false;\n        address signed = ecrecover(_passportHash, v, r, s);\n        return signed == _pubk;\n    }\n\n    function restore(bytes32 _passportHash, address _notary) public payable returns (bool) {\n        bytes storage cur = signs[restored];\n        bool valid =signcheck(_passportHash, cur, _notary);\n        if (valid) emit ValidSignature();\n        restored++;\n        if (notarys <= restored ) {\n            owner = msg.sender;\n            emit Recovered();\n        }\n        return true;\n    }\n    \n    \n    function finita_la_comedia() onlyOwner public {\n        selfdestruct(owner);\n    }\n}\n",
  "sourcePath": "/Users/vany/p/solvador/contract/t/contracts/solvador.sol",
  "compiler": {
    "name": "solc",
    "version": "0.4.25+commit.59dbf8f1.Emscripten.clang"
  },
  "schemaVersion": "3.0.8",
  "updatedAt": "2019-04-28T14:44:39.491Z",
  "devdoc": {
    "methods": {}
  },
  "userdoc": {
    "methods": {}
  }
}